:100000000C9434000C9451000C9451000C94510049
:100010000C9451000C9451000C9451000C9451001C
:100020000C9451000C9451000C9451000C94F20269
:100030000C9451000C9451000C9451000C945100FC
:100040000C9451000C9451000C945F040C945100DA
:100050000C9451000C9451000C9451000C945100DC
:100060000C9451000C94510011241FBECFEFD4E02A
:10007000DEBFCDBF11E0A0E0B1E0E6E9F0E102C0F3
:1000800005900D92A03FB107D9F713E0A0EFB1E0C2
:1000900001C01D92A136B107E1F70E9414050C942E
:1000A00049080C94000082E00E94E90080E10E946F
:1000B000BE041F928F9383E091E09F938F930E94E1
:1000C000120181E10E94CA049F938F9387E191E01E
:1000D0009F938F930E94120183E10E94D6049F9305
:1000E0008F9384E291E09F938F930E94120185E1A8
:1000F0000E94C404282F332727FD30953F938F9308
:1001000081E391E09F938F930E94120186E10E9408
:10011000CA049F938F938AE491E09F938F930E94E8
:10012000120188E10E94CA049F938F938EE591E0AB
:100130009F938F930E9412018AE10E94CA049F93A9
:100140008F9384E791E09F938F930E9412018CE13B
:100150000E94CA049F938F9385E891E09F938F93A9
:100160000E9412018DB79EB780960FB6F8949EBF7D
:100170000FBE8DBF8EE10E94CA049F938F938CE9BE
:1001800091E09F938F930E94120180E20E94CA0423
:100190009F938F9389EB91E09F938F930E9412011D
:1001A00082E20E94CA049F938F9387ED91E09F9310
:1001B0008F930E9412018AE00E94CD038DB79EB7F3
:1001C0000C960FB6F8949EBF0FBE8DBF81E00C94C5
:1001D000E900CF93C82F8FEF809300016AE070E0B1
:1001E00080E090E00E943503C13011F42C9801C0EA
:1001F0002C9A6AE070E080E090E00E943503C093A2
:100200000001CF910895809100010895CF93DF936D
:10021000EC018991882319F00E94CD03FACFDF9178
:10022000CF910895CF93DF93CDB7DEB7FE0135961A
:10023000419151919F016FEF70E087EF91E00E9433
:100240006E0587EF91E00E940601DF91CF9108953E
:10025000EF92FF920F931F93CF93DF93CDB7DEB74B
:1002600069857A85EDB6FEB68DB79EB7861B970B6E
:100270000FB6F8949EBF0FBE8DBF0DB71EB70F5FB0
:100280001F4F9E01235F3F4F4B855C85C8010E9435
:100290006E05C8010E9406010FB6F894FEBE0FBE9F
:1002A000EDBEDF91CF911F910F91FF90EF900895D8
:1002B0001F93CF93DF9300D01F92CDB7DEB7182FD7
:1002C00089E86B837A8399830E94CD039981892F72
:1002D0000E94CD03812F0E94CD037A81872F0E9437
:1002E000CD036B81862F0F900F900F90DF91CF91F0
:1002F0001F910C94CD0360E070E880E090E00C94D6
:100300005801CF93DF93EB0160E070E80E94580141
:100310008CE90E94CD038D2F0E94CD038C2F0E946B
:10032000CD03DF91CF910C947B01CF93DF93EA0152
:100330006F3F2FEF720719F4D195C195D1090E9433
:1003400058018DE90E94CD038D2F0E94CD038C2F83
:100350000E94CD03DF91CF910C947B018F929F92ED
:10036000AF92BF92CF92DF92EF92FF920F931F93C3
:10037000CF93DF93EC017A01690128EE33E0DB01D2
:100380000E9423059E01442737FD4095542F0E946B
:10039000320549015A0160E070E8CE010E9458011F
:1003A0009601A701C501B4010E944503DF91CF91D9
:1003B0001F910F91FF90EF90DF90CF90BF90AF9083
:1003C0009F908F900C947B014F925F926F927F92DF
:1003D0008F929F92AF92BF92CF92DF92EF92FF9255
:1003E0000F931F93CF93DF93EC014B0169015801E9
:1003F0008701DA0123E631E54EE350E00E942A0549
:100400002B013C0128E037E0DE010E9423059B011F
:10041000AC01C301B2010E94320529013A01B401C5
:10042000CE010E9458019501A601C301B2010E94AC
:100430004503DF91CF911F910F91FF90EF90DF90D7
:10044000CF90BF90AF909F908F907F906F905F9074
:100450004F900C947B018CE80E94CD0380E00E94B9
:10046000CD0384E00E94CD038CE30E94CD0386E09F
:100470000E94CD0388E40E94CD0386E00E94CD0354
:1004800084E50E94CD0386E00E94CD0380E60E94B1
:10049000CD0386E00E94CD038CE80E94CD0381E06D
:1004A0000E94CD0386E00E94CD0385E40E94CD0327
:1004B00082E10E94CD0388E40E94CD038CE00E947B
:1004C000CD038AE40E94CD038CE00E94CD0388E432
:1004D0000E94CD038CE00E94CD0385E40E94CD03F1
:1004E0008CE00E94CD038DE40E94CD0388E10C9442
:1004F000CD031D9918C01D9910C05F9864EF71E07D
:1005000080E090E00E9435035F9A64E670E080E04E
:1005100090E00E9435035F98EECF6CEA7DE080E0CA
:1005200090E00E9435038091C00087FF04C0809155
:10053000C6008111F8CF08951D9B08951D9B10C022
:100540005F9864EF71E080E090E00E9435035F9A6D
:1005500064E670E080E090E00E9435035F98EECFA3
:1005600008958BE80E94CD038091F6020E94CD038E
:100570008091F7020E94CD038091F8020C94CD0384
:100580008093F6026093F7024093F8020C94B10254
:100590001092F60280E48093F7028FEF8093F802C6
:1005A0000C94B1028093F7026093F8020C94B102AC
:1005B0008093F6020C94B102E6EFF2E09081982B62
:1005C00090830C94B102E6EFF2E08095908189234C
:1005D00080830C94B102E6EFF2E09081982790833B
:1005E0000C94B1021F920F920FB60F9211248F93A9
:1005F0009F93AF93BF938091F1019091F201A091ED
:10060000F301B091F401892B8A2B8B2BA1F08091FF
:10061000F1019091F201A091F301B091F4010197E1
:10062000A109B1098093F1019093F201A093F30124
:10063000B093F40102C01092F001BF91AF919F916D
:100640008F910F900FBE0F901F9018951092800001
:100650008CE08093810087E490E090938900809300
:10066000880082E080936F00089521E02093F001DC
:100670006093F1017093F2018093F3019093F40180
:100680008091F0018111FCCF08954F925F926F929B
:100690007F928F929F92AF92BF92CF92DF92EF9212
:1006A000FF920F931F93CF93DF93EA014901A12C8F
:1006B000B12C6B017C01C818D908EA08FB0821E0BD
:1006C0002093F0016093F1017093F2018093F301A4
:1006D0009093F4012801612C712C8091F001882302
:1006E00049F18091F1019091F201A091F301B09153
:1006F000F401481659066A067B0678F78091F101E5
:100700009091F201A091F301B091F401C816D906BD
:10071000EA06FB0610F3C090F101D090F201E090E0
:10072000F301F090F401C818D908EA08FB08FE01AB
:100730000995D3CFDF91CF911F910F91FF90EF904B
:10074000DF90CF90BF90AF909F908F907F906F90F1
:100750005F904F90089580E184B98FEC85B917B808
:100760008FEF88B986EE8AB98DE78BB9089583E15A
:1007700090E09093C5008093C40088E98093C10005
:1007800086E08093C2000895F8940E94AB030E9413
:1007900026030E94B703789408959091C00095FFB6
:1007A000FCCF8093C60008958091C00087FFFCCFE6
:1007B0008091C6000895CF93C82F8C3008F055C0A3
:1007C00081E80E94CD038091C00080648093C000C6
:1007D0008C2F0E94CD038091C00086FFFCCFF8943F
:1007E000CB3019F489E090E034C0CA3019F483E1C9
:1007F00090E02FC0C93019F48DE190E02AC0C830D4
:1008000019F487E290E025C0C73019F48BE390E03B
:1008100020C0C63019F48FE490E01BC0C53019F435
:1008200087E790E016C0C43019F48FEE90E011C055
:10083000C33019F48FED91E00CC0C23019F48FEB86
:1008400093E007C0C13019F48FE797E002C08FEF43
:100850009EE09093C5008093C400789464E670E0B5
:1008600080E090E0CF910C943503CF910895CF9321
:10087000C82F8EE80E94CD038C2FCF910C94CD030E
:100880008091F601811116C080E090E0FC01E750F4
:10089000FD4F2081FC01E35DFC4F208301968433F2
:1008A0009105A1F71092F50181E08093F60186E0B1
:1008B0000C94370408950E9437040C94D4031F92BB
:1008C0000F920FB60F9211242F933F934F935F9384
:1008D0006F937F938F939F93AF93BF93CF93EF9338
:1008E000FF93C091C6008091F601882319F10E9400
:1008F0000301E091F501813041F48E0F8093F50101
:10090000F0E0E750FD4FC0830FC0F0E0A091F5018B
:10091000B0E0A35DBC4F8C91E750FD4F8083809188
:10092000F5018F5F8093F5018091F501843310F01C
:100930001092F601FF91EF91CF91BF91AF919F91EE
:100940008F917F916F915F914F913F912F910F9078
:100950000FBE0F901F9018958091F6018111FCCF6A
:1009600008950F931F930AE010E021E030E040E487
:1009700054E00E9445031F910F910895E82FF0E085
:10098000E35DFC4F80810895E82FF0E0E35DFC4FCC
:100990008081089590E0FC01E35DFC4F2081FC0123
:1009A000E25DFC4F808190E0922B08950C94CA0484
:1009B0000895909302018093010108950E94C40359
:1009C00081E00E94E9000E94790280E80E94CD0344
:1009D0008AE00E94DB030E942B0282E80E94CD0382
:1009E00084E80E94CD030E947B018DE80E94CD0324
:1009F00080E00E94CD036EEE72E080E090E00E9405
:100A000035030C94C8020E947B010E949C0281E085
:100A100090E00E944908E0910101F09102010995DE
:100A20004C9B0E940305089583E590E00E94D90441
:100A30000E94DE040E940B0568EE73E080E090E007
:100A40000E94B104F7CF0E945405B7FF0895821B9E
:100A5000930B0895B7FF0C9463050E946305821BF6
:100A6000930B0895A1E21A2EAA1BBB1BFD010DC01A
:100A7000AA1FBB1FEE1FFF1FA217B307E407F5074E
:100A800020F0A21BB30BE40BF50B661F771F881F2A
:100A9000991F1A9469F760957095809590959B01C0
:100AA000AC01BD01CF010895A29FB001B39FC00169
:100AB000A39F700D811D1124911DB29F700D811D8A
:100AC0001124911D08950E945405A59F900DB49F77
:100AD000900DA49F800D911D11240895AEE0B0E00B
:100AE000E4E7F5E00C9420088C01CA0146E04C8351
:100AF0001A83098377FF02C060E070E861507109D2
:100B00007E836D83A901BC01CE0101960E949A05E6
:100B10004D815E8157FD0AC02F81388542175307EA
:100B20000CF49A01F801E20FF31F10822E96E4E014
:100B30000C943C08ACE0B0E0E0EAF5E00C9412085C
:100B40007C016B018A01FC0117821682838181FF7F
:100B5000BDC1CE0101964C01F7019381F60193FDD1
:100B6000859193FF81916F01882309F4ABC1853290
:100B700039F493FD859193FF81916F01853229F4BA
:100B8000B70190E00E948207E7CF512C312C20E082
:100B90002032A0F48B3269F030F4803259F0833285
:100BA00069F420612CC08D3239F0803339F4216032
:100BB00026C02260246023C0286021C027FD27C0F2
:100BC00030ED380F3A3078F426FF06C0FAE05F9E29
:100BD000300D1124532E13C08AE0389E300D11249D
:100BE000332E20620CC08E3221F426FD6BC12064AE
:100BF00006C08C3611F4206802C0883641F4F60134
:100C000093FD859193FF81916F018111C1CF982F41
:100C10009F7D9554933028F40C5F1F4FFFE3F983B9
:100C20000DC0833631F0833771F0833509F05BC036
:100C300022C0F801808189830E5F1F4F44244394B2
:100C4000512C540115C03801F2E06F0E711CF801EF
:100C5000A080B18026FF03C0652D70E002C06FEF59
:100C60007FEFC5012C870E9477072C0183012C851B
:100C70002F77222E17C03801F2E06F0E711CF80199
:100C8000A080B18026FF03C0652D70E002C06FEF29
:100C90007FEFC5012C870E946C072C012C852068F2
:100CA000222E830123FC1BC0832D90E04816590699
:100CB000B0F4B70180E290E00E9482073A94F4CF4A
:100CC000F50127FC859127FE81915F01B70190E036
:100CD0000E94820731103A94F1E04F1A51084114F2
:100CE000510471F7E5C0843611F0893639F5F80101
:100CF00027FF07C060817181828193810C5F1F4F44
:100D000008C060817181882777FD8095982F0E5FDC
:100D10001F4F2F76B22E97FF09C090958095709542
:100D200061957F4F8F4F9F4F2068B22E2AE030E0B1
:100D3000A4010E94B407A82EA81844C0853729F43E
:100D40002F7EB22E2AE030E025C0F22FF97FBF2E91
:100D50008F36C1F018F4883579F0B4C0803719F0B7
:100D6000883721F0AFC02F2F2061B22EB4FE0DC006
:100D70008B2D8460B82E09C024FF0AC09F2F966077
:100D8000B92E06C028E030E005C020E130E002C006
:100D900020E132E0F801B7FE07C0608171818281F5
:100DA00093810C5F1F4F06C06081718180E090E0ED
:100DB0000E5F1F4FA4010E94B407A82EA818FB2D98
:100DC000FF77BF2EB6FE0BC02B2D2E7FA51450F43F
:100DD000B4FE0AC0B2FC08C02B2D2E7E05C07A2CB2
:100DE0002B2D03C07A2C01C0752C24FF0DC0FE01F1
:100DF000EA0DF11D8081803311F4297E09C022FFA4
:100E000006C07394739404C0822F867809F073949B
:100E100023FD13C020FF06C05A2C731418F4530C82
:100E20005718732C731468F4B70180E290E02C8794
:100E30000E94820773942C85F5CF731410F4371831
:100E400001C0312C24FF12C0B70180E390E02C8751
:100E50000E9482072C8522FF17C021FF03C088E56E
:100E600090E002C088E790E0B7010CC0822F86783E
:100E700059F021FD02C080E201C08BE227FD8DE226
:100E8000B70190E00E948207A51438F4B70180E30F
:100E900090E00E9482075A94F7CFAA94F401EA0DD9
:100EA000F11D8081B70190E00E948207A110F5CF6B
:100EB000332009F451CEB70180E290E00E9482070E
:100EC0003A94F6CFF7018681978102C08FEF9FEFAA
:100ED0002C96E2E10C942E08FC01059061507040C4
:100EE0000110D8F7809590958E0F9F1F0895FC01F3
:100EF0006150704001900110D8F7809590958E0F49
:100F00009F1F08950F931F93CF93DF93182F092FDF
:100F1000EB018B8181FD03C08FEF9FEF20C082FF2B
:100F200010C04E815F812C813D81421753077CF4B4
:100F3000E881F9819F012F5F3F4F39832883108318
:100F400006C0E885F985812F0995892B29F72E811F
:100F50003F812F5F3F4F3F832E83812F902FDF9163
:100F6000CF911F910F910895FA01AA27283051F1CE
:100F7000203181F1E8946F936E7F6E5F7F4F8F4FCA
:100F80009F4FAF4FB1E03ED0B4E03CD0670F781F29
:100F9000891F9A1FA11D680F791F8A1F911DA11D0E
:100FA0006A0F711D811D911DA11D20D009F4689447
:100FB0003F912AE0269F11243019305D3193DEF6EF
:100FC000CF010895462F4770405D4193B3E00FD0A5
:100FD000C9F7F6CF462F4F70405D4A3318F0495D90
:100FE00031FD4052419302D0A9F7EACFB4E0A69573
:100FF0009795879577956795BA95C9F70097610595
:10100000710508959B01AC010A2E069457954795EA
:1010100037952795BA95C9F7620F731F841F951FDF
:10102000A01D08952F923F924F925F926F927F92F0
:101030008F929F92AF92BF92CF92DF92EF92FF92E8
:101040000F931F93CF93DF93CDB7DEB7CA1BDB0B94
:101050000FB6F894DEBF0FBECDBF09942A88398839
:1010600048885F846E847D848C849B84AA84B98440
:10107000C884DF80EE80FD800C811B81AA81B9814C
:10108000CE0FD11D0FB6F894DEBF0FBECDBFED0160
:061090000895F894FFCF63
:10109600FFD8044368617267696E67205374617490
:1010A600653A2025640A00566F6C746167653A20BC
:1010B60025640A0043757272656E743A2025640AC7
:1010C60000426174746572792054656D7065726151
:1010D600747572653A2025640A00426174746572FB
:1010E60079204368617267653A2025640A00426187
:1010F60074746572792043617061636974793A200A
:1011060025640A0057616C6C205369676E616C3AFE
:101116002025640A00436C696666204C6566742067
:101126005369676E616C3A2025640A00436C6966F0
:10113600662046726F6E74204C656674205369672C
:101146006E616C3A2025640A00436C696666204627
:10115600726F6E74205269676874205369676E6196
:101166006C3A2025640A00436C69666620526967FA
:101176006874205369676E616C3A2025640A000022
:00000001FF
