:100000000C9434000C9451000C9451000C94510049
:100010000C9451000C9451000C9451000C9451001C
:100020000C9451000C9451000C9451000C94DF027C
:100030000C9451000C9451000C9451000C945100FC
:100040000C9451000C9451000C944C040C945100ED
:100050000C9451000C9451000C9451000C945100DC
:100060000C9451000C94510011241FBECFEFD4E02A
:10007000DEBFCDBF11E0A0E0B1E0E4E7F0E102C0F7
:1000800005900D92A430B107D9F712E0A4E0B1E0D9
:1000900001C01D92A637B107E1F70E9401050C943B
:1000A00038080C94000080E00E94AB048C71089525
:1000B0000E942D040E94530081110C946801089540
:1000C00080E00E94AB04882311F081E008958CE168
:1000D0000E94B704892BC9F38EE10E94B704892BD3
:1000E000A1F380E20E94B704892B79F382E20E9497
:1000F000B70421E0892B09F020E0822F08950E94A7
:10010000600081110C94680160E070E884EF91E078
:100110000C944501BC0184EF91E00C944501EF92F1
:10012000FF920F931F932AE0E22EF12C01E010E0E2
:1001300028E530E04EE150E0BC0184EF91E00E9400
:10014000D1011F910F91FF90EF900895CF930E94DE
:100150002D048AE00E94AB04C82F0E945300811135
:100160001FC0C23839F0C33841F0C13859F481E0BA
:1001700090E005C00E947F0015C08FEF9FEF0E94A6
:100180008A0010C080910401813829F0833841F43D
:100190008FEF9FEF02C081E090E00E948F0002C0CD
:1001A0000E946801C0930401CF910895CF93C82F96
:1001B0008FEF809300016AE070E080E090E00E94A1
:1001C0002203C13011F42C9801C02C9A6AE070E02F
:1001D00080E090E00E942203C0930001CF91089537
:1001E000809100010895CF93DF93EC0189918823DA
:1001F00019F00E94BA03FACFDF91CF910895CF93FF
:10020000DF93CDB7DEB7FE013596419151919F0145
:100210006FEF70E08CE091E00E945D058CE091E072
:100220000E94F300DF91CF910895EF92FF920F9318
:100230001F93CF93DF93CDB7DEB769857A85EDB68F
:10024000FEB68DB79EB7861B970B0FB6F8949EBF70
:100250000FBE8DBF0DB71EB70F5F1F4F9E01235FEF
:100260003F4F4B855C85C8010E945D05C8010E9417
:10027000F3000FB6F894FEBE0FBEEDBEDF91CF9136
:100280001F910F91FF90EF9008951F93CF93DF93ED
:1002900000D01F92CDB7DEB7182F89E86B837A8321
:1002A00099830E94BA039981892F0E94BA03812FF2
:1002B0000E94BA037A81872F0E94BA036B81862F2E
:1002C0000F900F900F90DF91CF911F910C94BA0374
:1002D00060E070E880E090E00C944501CF93DF93FC
:1002E000EB0160E070E80E9445018CE90E94BA03CE
:1002F0008D2F0E94BA038C2F0E94BA03DF91CF91F9
:100300000C946801CF93DF93EA016F3F2FEF7207E0
:1003100019F4D195C195D1090E9445018DE90E943A
:10032000BA038D2F0E94BA038C2F0E94BA03DF916B
:10033000CF910C9468018F929F92AF92BF92CF920F
:10034000DF92EF92FF920F931F93CF93DF93EC0115
:100350007A01690128EE33E0DB010E9412059E015B
:10036000442737FD4095542F0E94210549015A0129
:1003700060E070E8CE010E9445019601A701C50129
:10038000B4010E943203DF91CF911F910F91FF9032
:10039000EF90DF90CF90BF90AF909F908F900C9494
:1003A00068014F925F926F927F928F929F92AF926D
:1003B000BF92CF92DF92EF92FF920F931F93CF9352
:1003C000DF93EC014B01690158018701DA0123E653
:1003D00031E54EE350E00E9419052B013C0128E075
:1003E00037E0DE010E9412059B01AC01C301B2019E
:1003F0000E94210529013A01B401CE010E94450164
:100400009501A601C301B2010E943203DF91CF9191
:100410001F910F91FF90EF90DF90CF90BF90AF9022
:100420009F908F907F906F905F904F900C94680199
:100430008CE80E94BA0380E00E94BA0384E00E9424
:10044000BA038CE30E94BA0386E00E94BA0388E4F0
:100450000E94BA0386E00E94BA0384E50E94BA03B0
:1004600086E00E94BA0380E60E94BA0386E00E94FA
:10047000BA038CE80E94BA0381E00E94BA0386E0C6
:100480000E94BA0385E40E94BA0382E10E94BA0383
:1004900088E40E94BA038CE00E94BA038AE40E94B6
:1004A000BA038CE00E94BA0388E40E94BA038CE08D
:1004B0000E94BA0385E40E94BA038CE00E94BA034A
:1004C0008DE40E94BA0388E10C94BA031D9918C008
:1004D0001D9910C05F9864EF71E080E090E00E9489
:1004E00022035F9A64E670E080E090E00E942203BD
:1004F0005F98EECF6CEA7DE080E090E00E942203FE
:100500008091C00087FF04C08091C6008111F8CFA0
:1005100008951D9B08951D9B10C05F9864EF71E0C6
:1005200080E090E00E9422035F9A64E670E080E041
:1005300090E00E9422035F98EECF08958BE80E941E
:10054000BA0380910B020E94BA0380910C020E94B0
:10055000BA0380910D020C94BA0380930B0260934E
:100560000C0240930D020C949E0210920B0280E448
:1005700080930C028FEF80930D020C949E02809367
:100580000C0260930D020C949E0280930B020C945B
:100590009E02EBE0F2E09081982B90830C949E02F7
:1005A000EBE0F2E080959081892380830C949E0299
:1005B000EBE0F2E09081982790830C949E021F92CA
:1005C0000F920FB60F9211248F939F93AF93BF9307
:1005D0008091060190910701A0910801B091090155
:1005E000892B8A2B8B2BA1F080910601909107011A
:1005F000A0910801B09109010197A109B109809367
:10060000060190930701A0930801B093090102C06D
:1006100010920501BF91AF919F918F910F900FBEE6
:100620000F901F901895109280008CE080938100AD
:1006300087E490E0909389008093880082E0809323
:100640006F00089521E020930501609306017093E7
:1006500007018093080190930901809105018111A0
:10066000FCCF08954F925F926F927F928F929F92EC
:10067000AF92BF92CF92DF92EF92FF920F931F93B0
:10068000CF93DF93EA014901A12CB12C6B017C01CE
:10069000C818D908EA08FB0821E0209305016093F7
:1006A00006017093070180930801909309012801C6
:1006B000612C712C80910501882349F180910601FC
:1006C00090910701A0910801B091090148165906BF
:1006D0006A067B0678F78091060190910701A09148
:1006E0000801B0910901C816D906EA06FB0610F305
:1006F000C0900601D0900701E0900801F090090138
:10070000C818D908EA08FB08FE010995D3CFDF9184
:10071000CF911F910F91FF90EF90DF90CF90BF90FE
:10072000AF909F908F907F906F905F904F900895C3
:1007300080E184B98FEC85B917B88FEF88B986EE60
:100740008AB98DE78BB9089583E190E09093C50055
:100750008093C40088E98093C10086E08093C20042
:100760000895F8940E9498030E9413030E94A40322
:10077000789408959091C00095FFFCCF8093C600B7
:1007800008958091C00087FFFCCF8091C600089536
:10079000CF93C82F8C3008F055C081E80E94BA036F
:1007A0008091C00080648093C0008C2F0E94BA03A7
:1007B0008091C00086FFFCCFF894CB3019F489E01B
:1007C00090E034C0CA3019F483E190E02FC0C93002
:1007D00019F48DE190E02AC0C83019F487E290E066
:1007E00025C0C73019F48BE390E020C0C63019F45F
:1007F0008FE490E01BC0C53019F487E790E016C085
:10080000C43019F48FEE90E011C0C33019F48FEDAD
:1008100091E00CC0C23019F48FEB93E007C0C130F7
:1008200019F48FE797E002C08FEF9EE09093C50028
:100830008093C400789464E670E080E090E0CF910B
:100840000C942203CF910895CF93C82F8EE80E9475
:10085000BA038C2FCF910C94BA0380910B018111B4
:1008600016C080E090E0FC01E25FFD4F2081FC01BA
:10087000EE5BFD4F2083019684339105A1F7109222
:100880000A0181E080930B0186E00C942404089512
:100890000E9424040C94C1031F920F920FB60F9272
:1008A00011242F933F934F935F936F937F938F9375
:1008B0009F93AF93BF93CF93EF93FF93C091C600E5
:1008C00080910B01882319F10E94F000E0910A0148
:1008D000813041F48E0F80930A01F0E0E25FFD4F1A
:1008E000C0830FC0F0E0A0910A01B0E0AE5BBD4F45
:1008F0008C91E25FFD4F808380910A018F5F80932E
:100900000A0180910A01843310F010920B01FF91CB
:10091000EF91CF91BF91AF919F918F917F916F9107
:100920005F914F913F912F910F900FBE0F901F90AD
:10093000189580910B018111FCCF08950F931F939F
:100940000AE010E021E030E04DE254E00E94320382
:100950001F910F910895E82FF0E0EE5BFD4F80812D
:100960000895E82FF0E0EE5BFD4F8081089590E060
:10097000FC01EE5BFD4F2081FC01ED5BFD4F8081B2
:1009800090E0922B08950C94B7040895909302017F
:100990008093010108950E94B10381E00E94D60076
:1009A0000E94660280E80E94BA038AE00E94C8039F
:1009B0000E94180282E80E94BA0384E80E94BA03E7
:1009C0000E9468018DE80E94BA0380E00E94BA0389
:1009D0006EEE72E080E090E00E9422030C94B5027B
:1009E0000E9468010E94890281E090E00E9438081C
:1009F000E0910101F091020109954C9B0E94F004E5
:100A0000089586EA90E00E94C6040E94CB040E94EA
:100A1000F80461E070E080E090E00E9422030E9410
:100A20009904F5CF0E944305B7FF0895821B930BED
:100A30000895B7FF0C9452050E945205821B930B38
:100A40000895A1E21A2EAA1BBB1BFD010DC0AA1F0F
:100A5000BB1FEE1FFF1FA217B307E407F50720F027
:100A6000A21BB30BE40BF50B661F771F881F991FA2
:100A70001A9469F760957095809590959B01AC01EB
:100A8000BD01CF010895A29FB001B39FC001A39FF4
:100A9000700D811D1124911DB29F700D811D1124B7
:100AA000911D08950E944305A59F900DB49F900D40
:100AB000A49F800D911D11240895AEE0B0E0E3E6FF
:100AC000F5E00C940F088C01CA0146E04C831A83B0
:100AD000098377FF02C060E070E8615071097E838E
:100AE0006D83A901BC01CE0101960E9489054D814B
:100AF0005E8157FD0AC02F813885421753070CF4D9
:100B00009A01F801E20FF31F10822E96E4E00C9494
:100B10002B08ACE0B0E0EFE8F5E00C9401087C01B4
:100B20006B018A01FC0117821682838181FFBDC19E
:100B3000CE0101964C01F7019381F60193FD859159
:100B400093FF81916F01882309F4ABC1853239F499
:100B500093FD859193FF81916F01853229F4B7014F
:100B600090E00E947107E7CF512C312C20E0203219
:100B7000A0F48B3269F030F4803259F0833269F49A
:100B800020612CC08D3239F0803339F4216026C0C9
:100B90002260246023C0286021C027FD27C030EDDB
:100BA000380F3A3078F426FF06C0FAE05F9E300D29
:100BB0001124532E13C08AE0389E300D1124332E99
:100BC00020620CC08E3221F426FD6BC1206406C069
:100BD0008C3611F4206802C0883641F4F60193FD8A
:100BE000859193FF81916F018111C1CF982F9F7DD6
:100BF0009554933028F40C5F1F4FFFE3F9830DC029
:100C0000833631F0833771F0833509F05BC022C041
:100C1000F801808189830E5F1F4F44244394512C37
:100C2000540115C03801F2E06F0E711CF801A0806C
:100C3000B18026FF03C0652D70E002C06FEF7FEF2B
:100C4000C5012C870E9466072C0183012C852F7714
:100C5000222E17C03801F2E06F0E711CF801A0803F
:100C6000B18026FF03C0652D70E002C06FEF7FEFFB
:100C7000C5012C870E945B072C012C852068222E41
:100C8000830123FC1BC0832D90E048165906B0F465
:100C9000B70180E290E00E9471073A94F4CFF50129
:100CA00027FC859127FE81915F01B70190E00E94AA
:100CB000710731103A94F1E04F1A51084114510470
:100CC00071F7E5C0843611F0893639F5F80127FF50
:100CD00007C060817181828193810C5F1F4F08C0C2
:100CE00060817181882777FD8095982F0E5F1F4F57
:100CF0002F76B22E97FF09C09095809570956195DB
:100D00007F4F8F4F9F4F2068B22E2AE030E0A40122
:100D10000E94A307A82EA81844C0853729F42F7E67
:100D2000B22E2AE030E025C0F22FF97FBF2E8F3699
:100D3000C1F018F4883579F0B4C0803719F08837DD
:100D400021F0AFC02F2F2061B22EB4FE0DC08B2D2D
:100D50008460B82E09C024FF0AC09F2F9660B92E68
:100D600006C028E030E005C020E130E002C020E10C
:100D700032E0F801B7FE07C0608171818281938102
:100D80000C5F1F4F06C06081718180E090E00E5FB4
:100D90001F4FA4010E94A307A82EA818FB2DFF77C0
:100DA000BF2EB6FE0BC02B2D2E7FA51450F4B4FE23
:100DB0000AC0B2FC08C02B2D2E7E05C07A2C2B2D2C
:100DC00003C07A2C01C0752C24FF0DC0FE01EA0D72
:100DD000F11D8081803311F4297E09C022FF06C0F5
:100DE0007394739404C0822F867809F0739423FD62
:100DF00013C020FF06C05A2C731418F4530C571854
:100E0000732C731468F4B70180E290E02C870E9481
:100E1000710773942C85F5CF731410F4371801C043
:100E2000312C24FF12C0B70180E390E02C870E9490
:100E300071072C8522FF17C021FF03C088E590E0D1
:100E400002C088E790E0B7010CC0822F867859F085
:100E500021FD02C080E201C08BE227FD8DE2B701D7
:100E600090E00E947107A51438F4B70180E390E088
:100E70000E9471075A94F7CFAA94F401EA0DF11D6C
:100E80008081B70190E00E947107A110F5CF332057
:100E900009F451CEB70180E290E00E9471073A94C4
:100EA000F6CFF7018681978102C08FEF9FEF2C96D6
:100EB000E2E10C941D08FC010590615070400110A6
:100EC000D8F7809590958E0F9F1F0895FC01615073
:100ED000704001900110D8F7809590958E0F9F1F5C
:100EE00008950F931F93CF93DF93182F092FEB01D2
:100EF0008B8181FD03C08FEF9FEF20C082FF10C068
:100F00004E815F812C813D81421753077CF4E8813B
:100F1000F9819F012F5F3F4F39832883108306C0DB
:100F2000E885F985812F0995892B29F72E813F8145
:100F30002F5F3F4F3F832E83812F902FDF91CF91E3
:100F40001F910F910895FA01AA27283051F12031FD
:100F500081F1E8946F936E7F6E5F7F4F8F4F9F4F4D
:100F6000AF4FB1E03ED0B4E03CD0670F781F891F8F
:100F70009A1FA11D680F791F8A1F911DA11D6A0F5D
:100F8000711D811D911DA11D20D009F468943F9110
:100F90002AE0269F11243019305D3193DEF6CF010F
:100FA0000895462F4770405D4193B3E00FD0C9F7D5
:100FB000F6CF462F4F70405D4A3318F0495D31FD42
:100FC0004052419302D0A9F7EACFB4E0A695979595
:100FD000879577956795BA95C9F70097610571056B
:100FE00008959B01AC010A2E0694579547953795B5
:100FF0002795BA95C9F7620F731F841F951FA01D0F
:1010000008952F923F924F925F926F927F928F92AC
:101010009F92AF92BF92CF92DF92EF92FF920F9387
:101020001F93CF93DF93CDB7DEB7CA1BDB0B0FB691
:10103000F894DEBF0FBECDBF09942A88398848884E
:101040005F846E847D848C849B84AA84B984C884E4
:10105000DF80EE80FD800C811B81AA81B981CE0FDB
:10106000D11D0FB6F894DEBF0FBECDBFED010895C0
:04107000F894FFCF22
:04107400FFC50400B0
:00000001FF
